:020000040800F2
:10000000800700208D0100085D2E0008472C0008A5
:1000100000000000000000000000000000000000E0
:10002000000000000000000000000000632E000837
:100030000000000000000000612E0008652E00088E
:100040009F010008000000009F0100089F010008B8
:100050009F010008C90F00089F0100089F010008C8
:10006000000000009F0100089F0100089F01000898
:100070009F0100089F0100089F0100080000000088
:100080009F01000800000000000000009F01000820
:10009000000000009F0100089F0100089F01000868
:1000A000000000009F010008000000009F01000800
:1000B00000F002F800F03EF80CA030C80838241810
:1000C0002D18A246671EAB4654465D46AC4201D190
:1000D00000F030F87E460F3E0FCCB6460126334284
:1000E00000D0FB1AA246AB4633431847F83B00004A
:1000F000183C0000103A02D378C878C1FAD85207E9
:1001000001D330C830C101D504680C6070470000CD
:100110000023002400250026103A01D378C1FBD823
:10012000520700D330C100D50B6070471FB51FBD0B
:1001300010B510BD00F0DEFD1146FFF7F7FF03F02C
:1001400003FC00F0F6FD03B4FFF7F2FF03BC00F080
:100150002BFE000070B505460C46164602E00FCC9B
:100160000FC5103E102EFAD2082E02D303CC03C5C1
:10017000083E042E07D301CC01C5361F03E02178C9
:100180002970641C6D1C761EF9D270BD074880472B
:1001900007480047FEE7FEE7FEE7FEE7FEE7FEE76B
:1001A00004480549054A064B70470000EF2E000839
:1001B000B10000088001002080070020800300209B
:1001C00080030020FEB5054610460C46184373D048
:1001D000AE468C460020AD1A01469C4167D3664668
:1001E000002701243D46B61A9D4102D313463A46E4
:1001F0002124654676462F04360C3E432D0CB61A54
:100200009D4104D3150C1B042B4312041034654686
:1002100076462F06360A3E432D0AB61A9D4104D370
:10022000150E1B022B4312020834654676462F0733
:1002300036093E432D09B61A9D4104D3150F1B0103
:100240002B431201241D65467646AF07B6083E4390
:10025000AD08B61A9D4104D3950F9B002B43920025
:10026000A41C65467646EF0776083E436D08B61A2D
:100270009D411AD392185B41641C16E00018764623
:1002800065464941B71A9D410191009009D36046E6
:10029000B11A98418E468446009801990025401C69
:1002A0006941DD0752082A435B08641EE6D57246A1
:1002B000634603B0F0BDFFE700200146C046C046DC
:1002C0002A462346F5E701E004C0091F0429FBD2B2
:1002D0008B0701D50280801CC90700D002707047CF
:1002E00000290BD0C30702D00270401C491E02290E
:1002F00004D3830702D50280801C891EE3E7002215
:10030000EEE70022DFE7002203098B422CD3030A29
:100310008B4211D300239C464EE003460B433CD452
:10032000002243088B4231D303098B421CD3030ABA
:100330008B4201D394463FE0C3098B4201D3CB01EA
:10034000C01A524183098B4201D38B01C01A52411A
:1003500043098B4201D34B01C01A524103098B421E
:1003600001D30B01C01A5241C3088B4201D3CB0009
:10037000C01A524183088B4201D38B00C01A5241EC
:1003800043088B4201D34B00C01A5241411A00D29C
:1003900001465241104670475DE0CA0F00D0494205
:1003A000031000D34042534000229C4603098B4275
:1003B0002DD3030A8B4212D3FC22890112BA030AFD
:1003C0008B420CD3890192118B4208D3890192117F
:1003D0008B4204D389013AD0921100E08909C30904
:1003E0008B4201D3CB01C01A524183098B4201D306
:1003F0008B01C01A524143098B4201D34B01C01AF1
:10040000524103098B4201D30B01C01A5241C30868
:100410008B4201D3CB00C01A524183088B4201D3D7
:100420008B00C01A5241D9D243088B4201D34B00F2
:10043000C01A5241411A00D20146634652415B1034
:10044000104601D34042002B00D549427047634615
:100450005B1000D3404201B50020C046C04602BD3B
:1004600070477047704700000246C80FC0078143BD
:100470004B0030B54B405B009B0D20D01923DB06B1
:10048000C91801231B05994220DB0324A407042576
:100490001346AB400BD3002B04D1EB0613409B005B
:1004A000E34204D401246407002312195941FF23B5
:1004B0001B0599420BD2C9000143500F09E0CB0242
:1004C00004D501430803024305D0054830BDFF2190
:1004D000C905084330BD084607210905884330BDDA
:1004E0000000C07FF0B5F94D0C091E092C402E40CC
:1004F0002F468BB0A7437DD0B543FCD0002E7AD0D9
:10050000002CFCD00D465D40ED0F2543AC1BFF25B4
:10051000AD0464190894C502440DC9022143500D6D
:10052000DC0204430120C00701430443D2020191CD
:10053000200C110C00958C46010423468B430A9134
:1005400061460904E24D8A430991010A7D44491933
:100550008039097805464D4301266D18F605751B4F
:100560006943C90C640B891C4C436418B5012C1BEE
:10057000250C2E04B4434C434D43210C69188909C2
:100580000591009DE90701D00121C90704912C467E
:1005900001996708CD072F434C08059DE10B4D439A
:1005A0002D0C29466646754302950D4645432E4659
:1005B000029D7D1BB44100950D465D4301942C0CBA
:1005C0002F040D465543AE462D0C3D430295039432
:1005D0007546049C2D04641B049406D2029C039D62
:1005E000641C002675410395029401AC70CC009FF9
:1005F0007D1B01E03EE162E1B441090400950791F1
:1006000001940599A4086143090C0C464443650B09
:10061000E7040C4666467443A646640B3C430395C8
:1006200002947446049DE4042C1B049406D2029C9C
:10063000039D641C002675410395029401AC70CCA7
:10064000009F7D1BB44101940C465C430095650FEF
:10065000E7000C465443A646640F3C4303950294BE
:100660007446049DE4002C1B049406D2029C039D56
:10067000641C002675410395029401AC70CC009F68
:100680007D1BB441AE09AF06049DC900AD092F43DF
:10069000049DA406AD060495079D3443691807918F
:1006A000059DE10B4D432D0C294666467543029589
:1006B0000D4645432E46029D7D1BB44100950D46D7
:1006C0005D4301942C0C2F040D465543AE462D0C72
:1006D0003D43029503947546049C2D04641B0494C9
:1006E00006D2029C039D641C00267541039502946A
:1006F00001AC70CC009F7D1BB44101948C05069425
:10070000079C890A611800950791019C0599A40826
:100710006143090C0D464543680BEF040D466446E2
:1007200065436C0B3C43049FED047D1BAC4602D239
:100730000025641C6841009E019D371B85410846C9
:10074000584301950C46460FC5005443600F28439B
:100750006546E4002C1B02D20025401C6E41019D21
:100760003F1AB5412846BD09800628438446A009A2
:10077000BF064E020699A40676180743079D00207F
:1007800068410A99079019430020099B0090604630
:10079000FF1913434041E20F64003A43A446044664
:1007A000D71A8C41A04203D90120009020463A4636
:1007B000C70F941840416246D20F2243644664003A
:1007C0000494009CBE466400D71AA44604460297CF
:1007D0008C417746002F01D1A04204D96046401CCD
:1007E0008446029A2046C40FA64694184041049AB3
:1007F0000546D20F224364466400D31A8D417146E8
:10080000002901D1A84202D928461A46641C104387
:100810000122002800D0164361020020079B89199D
:1008200004465C410223002C02DB49181346644154
:10083000089DCE0A2D145D194B056705E10A2C05AC
:100840000D1908993E43C9076940002B08D0934011
:1008500006D30022761C5141002B01D17608760088
:100860001C4A002D43DB154241D0AA433FD03046FD
:100870000BB0F0BD06180D464D41174C7642AC4109
:100880001AD395181C465C41134A6D42A24113D3FA
:10089000012252054C00D4420AD15C00D4420BD054
:1008A0004B4002D592021143E2E749004908DFE7D5
:1008B0005940C90FC90718E000200849D8E7054882
:1008C00001420DD10342F7D0F2E700000000FF071C
:1008D000143700000000F07F0000E0FF0000F87F08
:1008E000114859400143C01241400020C0E7012394
:1008F000089A9B069A4205DC032252078918C90F01
:10090000C907B5E7052252078918074A1143D212D1
:100910005140ADE770B515461C4602460B462846C9
:100920002146FFF7DFFD70BDFFFFFF7F1F22030C95
:1009300002D10F22000402D0030E03D004E00020F5
:10094000014670470002083A030F01D10001121F4F
:10095000830F01D18000921E002801DB4000521E4F
:10096000120551184205C012411810467047C10FB8
:10097000C90700D04042012292071143D6E7012166
:100980008907D3E7F0B58B4C0F09254689B0BD43E5
:100990007BD01D092646AE43FAD00E465E40274066
:1009A000F60F3E43254071D024012142FBD0FF24A5
:1009B000AD19A4042D1B039501252D05DB02DB0ACF
:1009C000C9022B43C90A29431E010901040F130F51
:1009D000050121431701880B820391432D098C46A1
:1009E000A90B1E438A039543B30B9A0396433F0911
:1009F000BA0B9403A74302962E467E430497B6464D
:100A00004E19D7190C460196544305977E43371B60
:100A10007646BF1B3601B646BE0B361900967646A3
:100A2000BC043719009C01D3641C00946400002F9F
:100A300001D001263443029E049F754366467E43DF
:100A40000496760034196E0034190094029C019EBD
:100A50001C196643751BAE46069465464519059CF0
:100A600005956C43594375460891691A0191049E96
:100A700001465143A41B0491611A009C0791E106B1
:100A800005D061090122114302E072E06EE06109C4
:100A9000089D00272C0A2D066918049D7C412A0A0E
:100AA0002D066918019D6241AC0DAD026D185441CF
:100AB000079A910D920255196141029A6446584372
:100AC0005443069B059A5A43121A131B9A0E9B0114
:100AD0005B187A41010B0005C3185141220A200618
:100AE00044195A419A4200D2491C012040028142D5
:100AF00003D315230226F64302E014230326F6430C
:100B00002020C51AA9401746AF40DA400A432046C4
:100B10000399D8400914731819055118039A3843DA
:100B2000D2075140AC4009D00122944006D30022A4
:100B3000401C5141002C01D1400840001E4A934204
:100B400012D3012203989206904207DB052040074A
:100B500009181A480143C012414004E0032040072D
:100B60000818C10FC907002009B0F0BD0020F10727
:100B7000FAE705180C464C4111486D42A04115D3C7
:100B800094181A465A410E48644290410ED30120EF
:100B90004A004005824209D35A00824206D3594096
:100BA000C90F084AC90700201143DDE700200649A4
:100BB000DAE700000000FF07FE070000FFFFFF7FED
:100BC0000000E0FF0000F07F0000F87F0121C90570
:100BD0000123411842001B06D3185B0E0AD0C11036
:100BE0000722D206891840075242D14201D552004D
:100BF00089187047090208D50146002A03D0C10FA1
:100C0000C9070020704710467047420202D00020FA
:100C100002497047072109050143F4E70000F87F06
:100C2000F8B5224C4E00069DA6420AD8A64201D134
:100C3000002806D15E00A64203D8A6420AD1002AA7
:100C400008D00D24240425422CD02946002000F091
:100C50002FF8F8BD0C461C430CD4994202D0EFF398
:100C60000080F8BD904202D0EFF30080F8BDEFF3B2
:100C70000080F8BD09242407E5008B4206D0EFF37D
:100C80000080A043591A06D2284304E0101A05D365
:100C9000EFF30080A04380F30088F8BDEFF30080FD
:100CA000A043F1E7009500F01BF8F8BD0000E0FF5D
:100CB000C80212D54803400F002804D0C803C0431F
:100CC000012188407047EFF30080000100090321F3
:100CD0000907084380F30088704700207047000030
:100CE00010B500200249029A00F02BF810BD000058
:100CF0000000F87F754600F053F8AE4605006946DF
:100D00005346C008C000854618B020B5FFF748FA22
:100D100060BC00274908B6460026C0C5C0C5C0C58E
:100D2000C0C5C0C5C0C5C0C5C0C5403D49008D4691
:100D3000704710B50446C046C0462046FFF703FA88
:100D400010BD10B50C461107090F092904D00A2956
:100D50000AD008290CD104E011460820FFF7A8FFAB
:100D600006E0510606D501E0510601D50120C00775
:100D7000214610BDD10607D501010909CC08490754
:100D8000000E0006044309E0410F20024907000A53
:100D90000143200E00061D22D14101430846E7E72A
:100DA000004870471C01002001491820ABBEFEE737
:100DB00026000200704770B5044600252068806850
:100DC00004210840800800282FD02068806808404F
:100DD00004280BD12068806802210840002805D132
:100DE00020688068102108432168886000F0E0FCDA
:100DF000054614E000F0DCFC401B02280FD92068F7
:100E0000806804210840002809D0A06B1021084305
:100E1000A063E06B01210843E063012070BD2068FE
:100E20008068042108400028E4D10020F6E770B56E
:100E300004460025206880688007800F01280ED1B5
:100E400020680068C007C00F002806D12068C0686D
:100E50000121C9030840884201D1012000E000209F
:100E600000283DD02068806805210840012800D175
:100E700000E0002000280AD000BF2068806802211E
:100E800008432168886003202168086009E0A06B9E
:100E900010210843A063E06B01210843E0630120B7
:100EA00070BD00F085FC054614E000F081FC401B9D
:100EB00002280FD920688068C007C00F002809D019
:100EC000A06B10210843A063E06B01210843E0639D
:100ED0000120E5E720688068C007C00F0028E4D142
:100EE0000020DDE738B5044600250020009020688A
:100EF00080688007800F01280ED120680068C00735
:100F0000C00F002806D12068C0680121C90308402D
:100F1000884201D1012000E0002000284CD1206847
:100F2000806826490840002801D1012000E0002007
:100F3000002809D1A06B10210843A063E06B0121B8
:100F40000843E063012038BD206880680121084320
:100F5000216888601A491B480068FFF7D4F900909F
:100F600002E00098401E009000980028F9D100F09F
:100F70001FFC054617E000F01BFC401B022812D99D
:100F800020680068C007C00F012148404840002881
:100F900009D1A06B10210843A063E06B0121084335
:100FA000E0630120CFE720680068C007C00F01217F
:100FB000484048400028DED00020C4E717000080E9
:100FC00040420F000C00002010B5012000F0E2FAB2
:100FD00002F0C6FB10BD72B600BFFEE7F8B50446CE
:100FE0000D4600260020009001210907E06A884292
:100FF00015D0E06A012812D0E06A02280FD0E06A1A
:1010000003280CD0E06A042809D0E06A052806D03D
:10101000E06A062803D0E06A072800D000BF00BFBE
:101020003420005D012801D10220F8BD01213420C7
:10103000015500BF2068806804210840800800280E
:101040007BD14449686888425BD02068806A2A78EE
:101050000121914008432168886201210907E06A63
:10106000884229D0E06A012826D0E06A022823D0ED
:10107000E06A032820D0E06A04281DD0E06A052831
:101080001AD0E06A062817D0E06A072814D0A868AA
:10109000216849694907490F88420DD02068406995
:1010A000C008C0002168486120684069297A490762
:1010B000490F0843216848612868102802D0286831
:1010C00011283FD1244880682968102901D1C9041A
:1010D00001E00121890508431F498860286810281C
:1010E00030D11E491E480068FFF70DF90A21484318
:1010F000009002E00098401E009000980028F9D16E
:1011000020E02068806A2A78012191408843216884
:1011100088622868102802D02868112812D10E4849
:1011200080682968102902D1C90402E005E0012184
:10113000890588430849886004E0A06B20210843A2
:10114000A063012600BF00213420015500BF3046B6
:101150006BE70000011000000027014040420F0033
:101160000C0000200146886B704701460868006C3F
:101170007047000070B5044600260025002C01D100
:10118000012070BDA06B002806D1E063002134204F
:101190000155204600F0D0F8A06B1021084000282F
:1011A0007ED1002EFCD12068806804210840800890
:1011B0000028F5D1A06B8901884302210843A06370
:1011C000206880688007800F01280DD120680068A2
:1011D000C007C00F002805D12068C06889030840F7
:1011E000884201D1012000E0002000280FD12068B2
:1011F000C06818218843A16808432168C860206836
:1012000000698000800861680843216808612068DF
:10121000C068474908402168C860207E8003617E1D
:10122000C9030843A17E49030843A16A012902D0EA
:101230000121090300E000210843E1680843216916
:10124000022901D1042100E0002108432421095D85
:10125000490008430543E07E01280ED1A07E002806
:1012600003D101200004054307E0A06B20210843BF
:10127000A063E06B01210843E063FF21C231E06914
:10128000884203D0216AE069084305432068C068AA
:1012900028432168C86001210907E06A884200E00C
:1012A0003EE014D0E06A012811D0E06A02280ED096
:1012B000E06A03280BD0E06A042808D0E06A052819
:1012C00005D0E06A062802D0E06A07280DD1206820
:1012D0004069C008C0002168486120684069A18D4C
:1012E0004907490F0843216848612068C0681149CF
:1012F0000840A84208D10020E063A06B0221884387
:1013000001210843A06310E0A06B02218843102153
:101310000843A063E06B01210843E063012604E079
:10132000A06B10210843A0630126304629E7000086
:101330001902FEFFE7FF3F8310B586B00446142173
:1013400001A8FEF7DEFF17492068884227D100BFB9
:101350001548806949150843134988610846806922
:1013600049150840009000BF00BF00BF0E4840690B
:10137000090208430C4948610846406901214904B3
:101380000840009000BF00BF102001900320029091
:101390000020039001A90920C00600F00BF906B057
:1013A00010BD00000024014000100240F8B50446C2
:1013B0000D466069082801D1082611E02068C06840
:1013C000C007C00F00280AD0A06B20210843A063EB
:1013D00000BF00213420015500BF0120F8BD0C26BC
:1013E00000F0E6F9074619E0681C002816D0002D29
:1013F00004D000F0DDF9C01BA8420FD920680068B6
:10140000304000280AD1A06B04210843A06300BF2C
:1014100000213420015500BF0320DFE72068006869
:1014200030400028E0D0A06B012149020843A063AE
:101430002068C068032189020840002825D1A07EC9
:10144000002822D1206800680821084008281CD103
:101450002068806804210840800800280DD1206899
:1014600040680C21884321684860A06BFF2101314E
:10147000884301210843A06307E0A06B20210843B3
:10148000A063E06B01210843E063207E002802D1C5
:101490000C20216808600020A0E7000070B5044619
:1014A00000252068806804210840800800282BD18E
:1014B00000BF3420005D012801D1022070BD012150
:1014C0003420015500BF607E012803D02046FFF77D
:1014D00009FD0546002D18D1A06B0D490840FF21DC
:1014E00001310843A0630020E06300BF00213420E5
:1014F000015500BF1C202168086020688068042115
:1015000008432168886000E002252846D6E70000ED
:10151000FEF1FFFF70B50446002500BF3420005DDA
:10152000012801D1022070BD01213420015500BFE6
:101530002046FFF740FC0546002D0CD12046FFF762
:1015400076FC0546002D06D1A06BFF2101318843B2
:1015500001210843A06300BF00213420015500BFD2
:101560002846E0E770B5044600F022F90646254615
:10157000681C002802D0054800782D1800BF00F034
:1015800017F9801BA842FAD370BD000008000020A4
:101590007047000010B50446054840692040002807
:1015A00004D0034844612046FFF7F2FF10BD00005D
:1015B0000004014078B503460A460021DFE0012619
:1015C0008E4014683440002C7ED01579AD07AD0FE5
:1015D000012D04D01579AD07AD0F022D18D19868F3
:1015E0004E000325B5400646AE4330464E00D56852
:1015F000B54028439860586801258D400646AE43A3
:1016000030461026556835402D098D4028435860D6
:101610001579AD07AD0F032D0BD0D8684E0003250B
:10162000B5400646AE4330464E009568B540284367
:10163000D8601579AD07AD0F022D15D1CD08AE00DC
:101640001D462035A8594D07EE0E0F25B54006461C
:10165000AE4330464E07F60E1569B5402843CD0817
:10166000AD001E462036705118684E000325B54067
:101670000646AE4330461579AD07AD0F4E00B54076
:10168000284318600326360455683540002D75D070
:1016900000BF3E4DAD69012635433C4EB561354630
:1016A000AD69ED07ED0F009500BF00BF384D8E0806
:1016B000B600A8598D072E0F0F25B5400646AE433C
:1016C00030460925ED0600E058E0AB4201D1002587
:1016D0000FE0304DAB4201D101250AE02E4DAB4267
:1016E00001D1022505E02D4DAB4201D1032500E0DB
:1016F00005258E07360FB5402843254D8E08B600C8
:10170000A851274D28680546A543284601263604DA
:1017100055683540002D02D0054625432846204D0A
:10172000286068680546A543284601267604556862
:101730003540002D02D0054625432846184D6860E7
:10174000A8680546A5432846012636055568354054
:10175000002D02D0054625432846114DA860E868B3
:101760000546A54328460126760555683540002DD7
:1017700002D0054625432846094DE860491C1568F6
:10178000CD40002D00D01AE778BD000000100240C7
:10179000080001400004004800080048000C004810
:1017A00000040140002A01D0816100E0816270479D
:1017B00001480068704700000000002003480068EE
:1017C000034909784018014908607047000000206B
:1017D0000800002010B5064800681021084304499D
:1017E0000860002000F006F800F02EF8002010BD80
:1017F0000020024070B50446104801787D20C000EA
:10180000FEF781FD064631460D480068FEF77BFD78
:10181000054600F0F5FC002801D0012070BD042C25
:1018200007D200222146501E00F03CF80548046013
:1018300001E00120F2E70020F0E7000008000020AE
:101840000C0000200400002008B500BF0D4880698E
:10185000012108430B49886108468069C007C00F11
:10186000009000BF00BF00BF0846C06909040843DC
:101870000449C8610846C06909040840009000BFD7
:1018800000BF08BD001002400146002905DBCB0661
:10189000DB0E01229A40024B1A6000BF7047000025
:1018A00000E100E070B504460D4616462946204684
:1018B00001F014FF70BD0000F8B5044600260025B5
:1018C000012109042068084088427AD100274B484A
:1018D000C0690903084000280DD100BF4748C0690E
:1018E00008434649C8610846C06909040840009099
:1018F00000BF00BF012742480068FF2101310840B6
:10190000002816D13E48006808433D490860FFF7AB
:101910004FFF064606E0FFF74BFF801B642801D906
:101920000320F8BD36480068FF2101310840002837
:10193000F1D03248006A0321090208400546002D13
:101940002DD060680840A84229D02C48006A8843FE
:1019500005462A48006A012109040843274908620C
:101960000846006A012109048843244908620846A0
:101970000562E807C00F002811D0FFF719FF0646DF
:1019800007E0FFF715FF801B1E49884201D903209D
:10199000C7E71A48006A022108400028F1D017481A
:1019A000006A0321090288436168084313490862F9
:1019B000012F05D10846C069090488430F49C86151
:1019C00000BF2078C007C00F002807D00B48006B6D
:1019D00080088000A1680843084908632021206826
:1019E0000840202807D10548006B10218843E16892
:1019F000084302490863002093E7000000100240FA
:101A0000007000408813000070B504460D46002C9D
:101A100001D1012070BD52480068C007C00FA84224
:101A20000ED24F4800684008400028434C490860E7
:101A300008460068C007C00FA84201D00120E9E7AE
:101A4000022120680840022814D10421206808409F
:101A5000042807D1434840680721090288434018F9
:101A6000404948603F484068F0218843A1680843E6
:101A70003C4948602078C007C00F00283BD0606810
:101A8000012808D13748006801214904084000288E
:101A900015D10120BEE76068022808D131480068EE
:101AA000012149060840002809D10120B2E72D484C
:101AB000006802210840002801D10120AAE7294836
:101AC0004068800880006168084326494860FFF745
:101AD0006FFE064607E0FFF76BFE801B2249884237
:101AE00001D9032096E71F4840680C21084061682F
:101AF00089008842EFD11A480068C007C00FA84289
:101B00000ED917480068400840002843144908606F
:101B100008460068C007C00FA84201D0012079E73D
:101B2000042120680840042808D10E484068072195
:101B300009028843E16808430A49486000F032F826
:101B400008494968F02211400909084A515CC84017
:101B5000074908600020FFF74DFE00205AE700000B
:101B60000020024000100240881300004C3C000896
:101B70000C00002001480068704700000C000020A5
:101B800000B5FFF7F7FF0549496807221202114027
:101B9000090A034A515CC84000BD00000010024021
:101BA0005C3C0008F0B589B027A001460EC9C068AA
:101BB00005AC0EC4089028A001460EC9C06801AC4F
:101BC0000EC4049000240025002700260020009069
:101BD000254844680C20204000282DD0042802D03D
:101BE000082828D102E02148009028E00F20800436
:101BF0002040800C05A90E5C1B48C06A0007000F3E
:101C000001A90D5C01200004204001210904884243
:101C10000AD12A46002315481946FEF7D3FA314661
:101C200001F043FD074604E01148314601F03DFD57
:101C30000746009703E000BF0C48009000BF00BFBC
:101C4000009809B0F0BD000002030405060708096A
:101C50000A0B0C0D0E0F10100102030405060708F5
:101C6000090A0B0C0D0E0F100010024000127A0032
:101C700000093D00FEB50446002C01D10120FEBD47
:101C80002078C007C00F002871D0FC4840680C21A4
:101C9000084004280BD0F94840680840082812D1B1
:101CA000F648406801210904084088420BD1F348F6
:101CB000006801214904084000286BD060680028B2
:101CC00068D10120DBE700BF6068012807D1EB483D
:101CD0000068012109040843E849086031E06068B0
:101CE00000280ED1E5480068012109048843E34932
:101CF000086008460068012189048843DF490860BC
:101D00001FE0606805280ED1DC48006801218904C5
:101D10000843DA49086008460068012109040843BD
:101D2000D64908600DE0D5480068012109048843C0
:101D3000D249086008460068012189048843CF49D8
:101D4000086000BF6068002812D0FFF731FD05462B
:101D500006E0FFF72DFD401B642801D903208EE724
:101D6000C64800680121490408400028F1D011E06C
:101D7000FFF71EFD054606E0FFF71AFD401B64282D
:101D800001D903207BE7BD480068012149040840D0
:101D90000028F1D1022120680840022861D1B7480B
:101DA00040680C21084000280BD0B4484068084027
:101DB00008281BD1B14840680121090408400028C7
:101DC00014D1AE48006802210840002804D0E06821
:101DD000012801D0012052E7A8480068F821884373
:101DE0002169C9000843A54908603AE0E068002875
:101DF00020D0A248006801210843A0490860FFF7ED
:101E0000D7FC054606E0FFF7D3FC401B022801D9AA
:101E1000032034E799480068022108400028F2D0E6
:101E200096480068F82188432169C900084393490E
:101E3000086016E091480068400840008F4908603B
:101E4000FFF7B6FC054606E0FFF7B2FC401B022890
:101E500001D9032013E789480068022108400028BF
:101E6000F2D1082120680840082831D1E069002813
:101E700017D08248406A0121084380494862FFF731
:101E800097FC054606E0FFF793FC401B022801D9AA
:101E90000320F4E67948406A022108400028F2D085
:101EA00016E07648406A4008400074494862FFF7EF
:101EB0007FFC054606E0FFF77BFC401B022801D9AA
:101EC0000320DCE66D48406A022108400028F2D178
:101ED000042120680840042873D10020019067483D
:101EE000C0698906084000280ED100BF6348C06958
:101EF00008436249C8610846C06909040840009067
:101F000000BF00BF012001905D480068FF21013142
:101F10000840002816D15A4800680843584908600C
:101F2000FFF746FC054606E0FFF742FC401B64282D
:101F300001D90320A3E652480068FF21013108407F
:101F40000028F1D000BFA068012806D14B48006AE4
:101F500001210843494908622BE0A06800280CD100
:101F60004648006A40084000444908620846006A42
:101F700004218843414908621BE0A06805280CD170
:101F80003E48006A042108433C4908620846006A4A
:101F900001210843394908620BE03848006A4008CB
:101FA0004000364908620846006A042188433349E4
:101FB000086200BFA068002813D0FFF7F9FB0546B0
:101FC00008E02BE0FFF7F4FB401B2E49884201D9C3
:101FD000032054E62948006A022108400028F1D075
:101FE00011E0FFF7E5FB054607E0FFF7E1FB401BCB
:101FF0002449884201D9032041E62048006A022191
:1020000008400028F1D10198012806D11B48C06979
:102010000121090788431949C86100BF10212068C0
:102020000840102860D1606901282DD11348406B09
:1020300004210843114948630846406B01210843C5
:102040000E494863FFF7B4FB054606E0FFF7B0FB17
:10205000401B022801D9032011E60848406B0221E9
:1020600008400028F2D00548406BF8218843A16958
:10207000C90008430149486336E0000000100240EF
:1020800000700040881300006069401D00280FD1D7
:102090005A48406B04218843584948630846406BBE
:1020A000F8218843A169C9000843544948631BE0EB
:1020B0005248406B04210843504948630846406B2E
:1020C000400840004863FFF773FB054606E0FFF752
:1020D0006FFB401B022801D90320D0E54748406B25
:1020E000022108400028F2D1206A00284FD043483E
:1020F00040680C210840082864D0206A022847D193
:102100003E4800680121090688433C490860FFF702
:102110004FFB054606E0FFF74BFB401B022801D9A9
:102120000320ACE535480068012149060840002835
:10213000F1D100BF3148C06A00090001E16A0843DB
:102140002E49C862616AA06A08432C4949683D2249
:102150001204914308432949486000BF08460068BB
:1021600001210906084325490860FFF721FB0546C0
:1021700006E0FFF71DFB401B022801D903207EE586
:102180001E4800680121490608400028F1D033E0CC
:102190001A48006801210906884318490860FFF7BA
:1021A00007FB054606E0FFF703FB401B022801D9A9
:1021B000032064E511480068012149060840002811
:1021C000F1D119E0206A012800D158E50B48466892
:1021D000C76A012000043040616A88420AD1390789
:1021E000090FE06A814205D10F2080043040A16AC6
:1021F000884201D0012042E5002040E50010024065
:1022000070B504462546681E0949884201D9012057
:102210000CE0681E074948610321081F01F05EFABF
:1022200000200449886107200861002070BD00007B
:10223000FFFFFF0000E000E030B502460B4600BFA4
:102240003C20805C012801D1022030BD01253C20CA
:10225000855400BF02253D208554106844681068ED
:10226000816870252046A843044618680443106816
:1022700044600D4D1068A84203D00C4D1068A84270
:1022800007D180250846A8430146586801431068D5
:10229000816001253D20855400BF00253C208554E8
:1022A00000BF0020D1E70000002C014000040040E6
:1022B00010B50446002C01D1012010BD3D20005D69
:1022C000002805D100213C200155204600F022F8CD
:1022D00002213D200155211D206800F009FE012149
:1022E0004620015500BF3E2001553F2001554020AA
:1022F00001554120015500BF00BF42200155432038
:102300000155442001554520015500BF3D20015590
:102310000020D2E708B5094A016891420DD100BFFB
:102320000749C96902221143054AD1611146C969A9
:1023300002221140009100BF00BF08BD0004004010
:1023400000100240F8B504460D460020009000BF82
:102350003C20005D012801D10220F8BD01213C2074
:10236000015500BF02213D20015520688668772174
:10237000304688430646FF21090230468843064618
:10238000206886602868502834D00CDC202851D082
:1023900004DC00284CD0102852D14AE030284AD022
:1023A00040284DD13AE060282ED0702807D0012176
:1023B0000903401A02D0401A42D10DE043E0EB6815
:1023C0006A68A968206800F0ECFD206886687720BC
:1023D00006432068866036E0EB686A68A968206872
:1023E00000F0DFFD2068806801218903084321682F
:1023F000886028E0EA686968206800F025FF5021BD
:10240000206800F0DCFD1EE0EA686968206800F0E2
:1024100034FF6021206800F0D2FD14E0EA686968AA
:10242000206800F011FF4021206800F0C8FD0AE09C
:1024300000BF00BF00BF2968206800F0C0FD02E0B7
:102440000120009000BF00BF01213D20015500BFC9
:1024500000213C20015500BF00987EE710B586B0F2
:102460000446142101A8FDF74CFF11492068884259
:102470001CD100BF0F484069491308430D4948610A
:1024800008464069012149040840009000BF00BF90
:10249000402001900220029000200390049001202F
:1024A000059001A90920C006FFF784F806B010BD09
:1024B0000004004000100240F8B504460D461646E0
:1024C000002700BF3C20005D012801D10220F8BD9B
:1024D00001213C20015500BF002E06D0042E1BD048
:1024E000082E33D00C2E62D147E02946206800F038
:1024F00073FD20688069082108432168886120688D
:10250000806904218843216888612068806929697D
:102510000843216888614CE02946206800F0AAFD44
:10252000206880690121C902084321688861206808
:102530008069012189028843216888612068806957
:102540002969090208432168886132E02946206828
:1025500000F0E8FD2068C069082108432168C861CF
:102560002068C069042188432168C8612068C06967
:10257000296908432168C8611BE02946206800F0EA
:1025800027FE2068C0690121C90208432168C8618B
:102590002068C0690121890288432168C8612068D8
:1025A000C0692969090208432168C86101E001275F
:1025B00000BF00BF00BF00213C20015500BF3846CE
:1025C00085E710B50446002C01D1012010BD3D2047
:1025D000005D002805D100213C200155204600F077
:1025E00022F802213D200155211D206800F080FCC9
:1025F00001214620015500BF3E2001553F200155D5
:10260000402001554120015500BF00BF4220015527
:1026100043200155442001554520015500BF3D2070
:1026200001550020D2E7704770B504460D46002DD5
:1026300002D13E20005D0BE0042D02D13F20005D61
:1026400006E0082D02D14020005D01E04120005D40
:10265000012801D0012070BD002D03D102213E20B0
:1026600001550EE0042D03D102213F20015508E061
:10267000082D03D102214020015502E00221412012
:10268000015501222946206800F07AFC1A49206889
:10269000884207D019492068884203D01849206829
:1026A000884201D1012000E00020002806D02068E7
:1026B000406C0121C9030843216848640E49206821
:1026C000884203D00F49206888420CD12068806876
:1026D0004607760F062E0CD02068006801210843BB
:1026E0002168086005E0206800680121084321682E
:1026F00008600020AFE70000002C014000440140CA
:102700000048014000040040F0B504460D46002694
:10271000002D02D13E20005D0BE0042D02D13F20B0
:10272000005D06E0082D02D14020005D01E041205F
:10273000005D012801D00120F0BD002D03D1022150
:102740003E2001550EE0042D03D102213F2001550A
:1027500008E0082D03D102214020015502E00221AA
:1027600041200155002D06D0042D0BD0082D10D08E
:102770000C2D1CD114E02068C06802210843216898
:10278000C86016E02068C068042108432168C8605A
:102790000FE02068C068082108432168C86008E08D
:1027A0002068C068102108432168C86001E0012644
:1027B00000BF00BF002E37D101222946206800F05B
:1027C000DFFB1A492068884207D0194920688842EF
:1027D00003D018492068884201D1012000E0002080
:1027E000002806D02068406C0121C90308432168F5
:1027F00048640E492068884203D00F492068884207
:102800000CD12068806847077F0F062F0CD0206806
:102810000068012108432168086005E0206800681D
:102820000121084321680860304685E7002C0140FB
:1028300000440140004801400004004030B5044617
:102840000D4600222946206800F09AFB284920689E
:10285000884207D027492068884203D0264920684B
:10286000884201D1012000E00020002814D000BFE0
:102870002068006A2149084000280CD12068006ABD
:1028800089100840002806D12068406C0121C90346
:1028900088432168486400BF00BF2068006A174968
:1028A000084000280BD12068006A891008400028E1
:1028B00005D120680068400840002168086000BF1A
:1028C000002D03D101213E2001550EE0042D03D13E
:1028D00001213F20015508E0082D03D101214020AE
:1028E000015502E0012141200155002030BD0000CA
:1028F000002C01400044014000480140111100003B
:1029000010B50446002C01D1012010BDA06900289B
:1029100000D000E000BFA06F002805D10021742086
:102920000155204600F02CF82420A067206800689C
:102930004008400021680860204600F069FD012839
:1029400000D1E2E7606A002802D0204600F0AEFC29
:10295000206840680121C9028843216848602068D6
:102960008068082188432168886020680068012108
:10297000084321680860204600F010FDC5E700000C
:1029800010B586B00446142101A8FDF7BAFC1A4917
:10299000206888422ED100BF184880690121890330
:1029A0000843164988610846806901218903084067
:1029B000009000BF00BF00BF10484069C900084335
:1029C0000E494861084640690121490408400090C9
:1029D00000BF00BF032040020190022002900020AF
:1029E0000390032004900120059001A90920C0064E
:1029F000FEF7E0FD06B010BD0038014000100240B7
:102A0000FFB585B004460D461746E06F202873D108
:102A1000002D01D0002F02D1012009B0F0BD01210D
:102A20000903A068884208D12069002805D1E80779
:102A3000C00F002801D00120EFE700BF7420005D27
:102A4000012801D10220E8E701217420015500BFCF
:102A50000021802001512220E06700202066FEF73F
:102A6000A7FE0290582007535A20075300BF0121A8
:102A70000903A06888420AD12069002803D130499F
:102A80005C20015314E0FF215C20015310E0A0689A
:102A900000280AD12069002803D1FF215C200153BE
:102AA00006E07F215C20015302E000215C200153FD
:102AB00000BF5C20005B039001210903A0688842ED
:102AC00005D12069002802D10026049502E02E4697
:102AD0000020049000BF00217420015500BF25E0B4
:102AE00008980090002220212046029B00F050FD13
:102AF000002802D0032090E720E0002E09D12068B2
:102B0000808C03990840049908800498801C0490E4
:102B100006E02068808C0399C9B208403070761CAA
:102B20005A20005B401E81B25A2001535A20005B9C
:102B30000028D5D12020E06700206EE702206CE756
:102B4000FF010000FFB583B004460D461746A06F95
:102B5000202876D1002D01D0002F02D1012007B00E
:102B6000F0BD01210903A068884208D1206900282E
:102B700005D1E807C00F002801D00120EFE700BF12
:102B80007420005D012801D10220E8E701217420B2
:102B9000015500BF0021802001512120A067FEF7D0
:102BA00007FE0190502007535220075301210903CB
:102BB000A068884205D12069002802D1002602952C
:102BC00002E02E460020029000BF00217420015533
:102BD00000BF21E006980090002280212046019B42
:102BE00000F0D6FC002801D00320B8E7002E09D160
:102BF00002980088C005C00D216808850298801CD5
:102C0000029003E0307821680885761C5220005B32
:102C1000401E81B2522001535220005B0028D9D1BE
:102C200006980090002240212046019B00F0B0FC55
:102C3000002802D0032092E703E02020A0670020B4
:102C40008DE702208BE700BFFEE700000EB50020F5
:102C500000900190029019481949086000204860CE
:102C6000002117488160C160012101610421416197
:102C7000002101764176012181760021C176FF2174
:102C8000C231C16100210162243001700121243868
:102C90008162FEF76FFA002801D0FEF79CF904204C
:102CA0000090800201900004029069460448FEF7FB
:102CB00095F9002801D0FEF78EF90EBD00240140E1
:102CC0001000002000B587B0142102A8FDF719FB01
:102CD00000BF234840690121890508432049486114
:102CE00008464069012189050840019000BF00BFE6
:102CF00000BF1B484069491108431949486108460B
:102D00004069012149040840019000BF00BF002232
:102D10008E210920C006FEF745FD012002901120FA
:102D2000000403900020049002A90920C006FEF7C9
:102D300041FC8E2002900120039000200490059019
:102D400002A90920C006FEF735FC0022012105205A
:102D5000FEF7A8FD0520FEF797FD07B000BD0000B7
:102D60000010024000B58DB0002009900A900B9031
:102D70000C90079008901C216846FDF7C2FA224883
:102D80002249086022484860002120488160C7210C
:102D9000C1600021016180218161FFF789FA00286B
:102DA00001D0FEF718F901200003099009A917487E
:102DB000FFF7C8FA002801D0FEF70DF91348FFF716
:102DC00000FC002801D0FEF706F9002007900890CB
:102DD00007A90E48FFF730FA002801D0FEF7FBF8EC
:102DE000602000900020019002900490002269462B
:102DF0000648FFF761FB002801D0FEF7ECF8034816
:102E0000FFF72CFB0DB000BD000400405000002077
:102E1000BF12000010B50F480F490860E120000202
:102E2000486000210C488160C16001610C21416152
:102E300000218161C16101621020074948620102DD
:102E400005488163FFF75CFD002801D0FEF7C3F859
:102E500010BD0000003801409800002000BFFEE7D0
:102E60007047704710B5FEF7A9FC10BD00B595B0CE
:102E7000302109A8FDF745FA00200590069007903B
:102E80000890019002900390049011200990012075
:102E90000A900E9010200F9002201190C103129101
:102EA000C10413910021149109A8FEF7E3FE002844
:102EB00001D0FEF790F80720059002200690002030
:102EC00007900890012105A8FEF79EFD002801D07B
:102ED000FEF781F8012001900020039001A8FEF781
:102EE000EBFC002801D0FEF776F815B000BD704766
:102EF00010B502681D4B984202D01D4B984205D177
:102F000070241346A3431A464B681A43174B984242
:102F10000BD0174B984208D0164B984205D0164B51
:102F2000984202D0154B984206D10324240213463E
:102F3000A3431A46CB681A4380241346A3434C6923
:102F400023431A4602608B68C3620B688362074B97
:102F5000984205D0084B984202D0084B984201D1C4
:102F60000B6903630123436110BD0000002C014085
:102F7000000400400020004000440140004801409F
:102F800070B5CD06ED0E0124AC402346046A9C4387
:102F90000462046ACE06F60E1546B5402C43046260
:102FA00070BD70B50C468168FF2636020D46B543EC
:102FB00029461D02154325432943816070BD10B584
:102FC0000A46816870240B46A3431946072313431E
:102FD0001943816010BD000070B5056A6D086D0071
:102FE0000562026A4368846970262546B5432C460B
:102FF000A408A4000D682C4302261546B5432A46B2
:103000008D682A43184DA84200D107E0174DA84209
:1030100000D103E0164DA8420AD100BF082615468C
:10302000B5432A46CD682A4304261546B5432A46A9
:103030000D4DA84205D00D4DA84202D00C4DA8421E
:103040000CD1FF2601361D46B5432B4676001D46A2
:10305000B5432B464D692B438D692B4343608461F7
:103060004D684563026270BD002C01400044014080
:103070000048014070B5056A1026B5430562026A32
:1030800043688469072636032546B5432C46032644
:1030900036022546B5432C460D682D022C432026CA
:1030A0001546B5432A468D682D012A431A4DA8427C
:1030B00000D107E0194DA84200D100BF184DA84229
:1030C0000BD10AE080261546B5432A46CD682D016E
:1030D0002A4340261546B5432A460F4DA84205D03F
:1030E0000E4DA84202D00E4DA8420ED10126B602C6
:1030F0001D46B5432B4676001D46B5432B464D690C
:10310000AD002B438D69AD002B43436084614D6856
:103110008563026270BD0000002C01400044014044
:103120000048014070B5056AFF260136B5430562C7
:10313000026A4368C46970262546B5432C46A40834
:10314000A4000D682C43012676021546B5432A4695
:103150008D682D022A431B4DA84200D107E01A4D6D
:10316000A84200D100BF194DA8420CD10BE00126A6
:10317000F6021546B5432A46CD682D022A4376103D
:103180001546B5432A460F4DA84205D00E4DA8421C
:1031900002D00E4DA8420ED1012636031D46B5437E
:1031A0002B4676001D46B5432B464D692D012B431A
:1031B0008D692D012B434360C4614D68C563026274
:1031C00070BD0000002C0140004401400048014057
:1031D00070B5056A01263603B5430562046A436883
:1031E000C269072636031546B5432A46032636022A
:1031F0001546B5432A460D682D022A43012676035B
:103200002546B5432C468D682D032C430B4DA84213
:1032100005D00B4DA84202D00A4DA84207D1012685
:10322000B6031D46B5432B464D69AD012B434360A4
:10323000C2614D680564046270BD0000002C01404D
:10324000004401400048014070B50B461446026A34
:10325000056A6D086D0005628169F0260D46B5436B
:103260002946250129430A261546B5432A4615460F
:103270001D432A468161026270BD70B50B4614463B
:10328000056A1026B54305628169026A0F26360376
:103290000D46B543294625032943A0261546B543C7
:1032A0002A461D012A438161026270BD818CC907D3
:1032B000C90F002908D001684968012252049143CE
:1032C000826A1143026851600222416A1140022958
:1032D00007D101684968D2039143C26A1143026869
:1032E00051600422416A1140042907D101684968EC
:1032F00012049143026B1143026851600822416A33
:103300001140082907D10168496812039143426BB3
:103310001143026851601022416A1140102907D1FF
:103320000168896812029143826B114302689160BF
:103330002022416A1140202907D1016889681202C0
:103340009143C26B1143026891604022416A11406F
:10335000402915D10168496892039143026C1143D9
:103360000268516001221205016C914208D1016886
:103370004968032252059143426C1143026851602F
:103380008022416A1140802907D1016849681203EF
:103390009143826C114302685160704738B504460E
:1033A000002180200151FEF703FA054620680068DD
:1033B0000821084008280BD114482B460022890414
:1033C0000090204600F0E4F8002801D0032038BD2A
:1033D000206800680421084004280BD10B482B46C4
:1033E000002209050090204600F0D2F8002801D004
:1033F0000320ECE72020A067E0670020206600BFE4
:1034000000217420015500BF0020E0E7FFFFFF010D
:10341000FEB50446002000902169A0680843616958
:103420000843E16908430290206800685449084055
:103430000299084321680860206840680321090355
:103440008843E168084321684860A0690290206AC7
:10345000029908430290206880680B210902884382
:10346000029908432168886000BF4648006B8007C6
:10347000800F002806D0012808D0022808D0032891
:1034800008D101E0002707E0022705E0042703E058
:10349000082701E0102700BF00BF00BF0121C903BA
:1034A000E069884239D1002F06D0022F08D0042FBE
:1034B00008D0082F0DD109E0FEF762FB05460CE0AD
:1034C000314D0AE0FEF76EFB054606E00125ED03EF
:1034D00003E000250120009000BF00BF002D49D06F
:1034E0006A0063685B08D0186168FCF70CFF86B25D
:1034F000102E0FD3254886420CD824480F38304070
:1035000001903007400F019908430190019821680C
:10351000C8602FE0012000902CE0002F06D0022F81
:1035200008D0042F08D0082F0DD109E0FEF728FBA2
:1035300005460CE0144D0AE0FEF734FB054606E0B4
:103540000125ED0303E000250120009000BF00BF2E
:10355000002D0FD061684A085019FCF7D4FE86B2DE
:10356000102E05D30948864202D82068C66001E0C3
:103570000120009000206066A0660098FEBD00005B
:10358000F369FFFF0010024000127A00FFFF000005
:10359000FFB581B004460D4617460A9E78E0701CC0
:1035A000002875D0FEF704F90499401AB04201D8FA
:1035B000002E2DD100BF00F0CDF80090012000F0CA
:1035C000CCF820680068FF21A13188432168086099
:1035D000009800F0C2F800BF00BF00F0BBF80090F8
:1035E000012000F0BAF82068806840084000216897
:1035F0008860009800F0B1F800BF2020A067E06765
:1036000000BF00217420015500BF032005B0F0BDAC
:103610002068006804210840002839D02068C0696B
:1036200049020840C00A002832D0084621680862D2
:1036300000BF00F08FF80090012000F08EF82068A5
:103640000068FF21A131884321680860009800F0DC
:1036500084F800BF00BF00F07DF80090012000F06A
:103660007CF82068806840084000216888600098E5
:1036700000F073F800BF2020A067E06720218020C1
:10368000015100BF00217420015500BF0320BDE798
:103690002068C0692840A84201D1012000E0002034
:1036A000B84200D17BE70020B0E7F8B582B28BB218
:1036B000040C0D0C10465843002126465E43370C7F
:1036C00036048019794116466E43370C360480194A
:1036D000794126466E438919F8BD000010B50028CF
:1036E00019DB1A4A03231B02D21883089B00D25805
:1036F0008307DC0EFF23A3409A438B071B0E84072E
:10370000E40EA3401A43114B032424021B1984081E
:10371000A4001A5118E00E4A03071B0F083B9B0830
:103720009B00D2588307DC0EFF23A3409A438B07EC
:103730001B0E8407E40EA3401A43054B0407240F15
:10374000083CA408A4001A5110BD000000E100E0EC
:103750001CED00E0EFF31080704780F31088704795
:10376000F8B5012280210920C006FEF71BF800F001
:103770005DF90446002C06D100F058F904467D207E
:10378000C000FDF7EFFE012C7AD100228021092034
:10379000C006FEF707F81720624909684863002150
:1037A0006048FEF7B1FF6048FDF7DCFE07205D4989
:1037B000096848637D20C000FDF7D4FE0021594808
:1037C000FFF73CF85948FDF769FE00F0F5F80746A9
:1037D0003846FDF7FBF90546554A564B00F002FA0C
:1037E0001BD2002202210920C006FDF7DBFF0022C8
:1037F00008210920C006FDF7D5FF4F48FDF7B2FEAE
:10380000012202210920C006FDF7CCFF0122082178
:103810000920C006FDF7C6FF42E03846FDF7D6F99D
:103820000546464A464B00F0DDF90FD2002208213A
:103830000920C006FDF7B6FF3F48FDF793FE0122C1
:1038400008210920C006FDF7ADFF29E03846FDF745
:10385000BDF90546364A52423A4B00F0C3F910D240
:10386000002202210920C006FDF79CFF3248FDF727
:1038700079FE012202210920C006FDF793FF0FE027
:103880000FE0002204210920C006FDF78BFF2A4823
:10389000FDF768FE012204210920C006FDF782FF22
:1038A0003EE0002280210920C006FDF77BFF642056
:1038B000FDF758FE012280210920C006FDF772FFA6
:1038C0006420FDF74FFE002280210920C006FDF78D
:1038D00069FF6420FDF746FE012280210920C00611
:1038E000FDF760FF6420FDF73DFE002280210920E6
:1038F000C006FDF757FF6420FDF734FE012280214A
:103900000920C006FDF74EFF6420FDF72BFE0022C4
:1039100080210920C006FDF745FF6420FDF722FE47
:10392000F8BD000050000020B80B0000100000207F
:10393000CDCCCCCCCCCC00401027000066666666AF
:103940006666FE3F3333FB3FFDF744FFFFF78EFA19
:10395000FFF7B8F9FFF77AF9FFF704FAFFF75AFA19
:10396000012202210920C006FDF71CFF01220421CB
:103970000920C006FDF716FF012208210920C00614
:10398000FDF710FF002280210920C006FDF70AFF85
:10399000072008490968486300210648FEF744FEED
:1039A0007D20C000FDF7DEFD00210248FEF746FF46
:1039B00000BFFEE750000020F0B585B01748FDF7C6
:1039C0006DFD32211548FDF7F1FC1448FDF7CAFBE7
:1039D000012149020840884219D11048FDF7C5FB72
:1039E00084B22046FCF7CBFF05460D4A0D4BFCF791
:1039F000C9FF00220C4B01910090FCF773FD03916D
:103A00000290FCF731FD07460A20FDF7ABFD0348A5
:103A1000FDF780FD384605B0F0BD00001000002025
:103A20006666666666660A400000B04010B5BAB0C9
:103A3000002464211AA8FCF764FC00201790189059
:103A4000199050A001460EC9C068159314921391A5
:103A5000169050A207CA10AB07C351A30FCB0F9308
:103A60000CAB07C352A30FCB0B9308AB07C354A2F5
:103A700007CA05AB07C3142254A16846FCF76AFBCA
:103A8000012364221AA95648FEF7BAFF64231022C4
:103A900013A95348FFF756F864230C2237A950485E
:103AA000FEF7AEFF0A20FDF75DFD64230C2210A98E
:103AB0004B48FFF747F87D231B010C2217A9484804
:103AC000FEF79EFF0A20FDF74DFD64230D220CA991
:103AD0004348FFF737F87D231B010C2217A9404804
:103AE000FEF78EFF0A20FDF73DFD64230C2210A98E
:103AF0003B48FFF727F87D231B010C2217A9384804
:103B0000FEF77EFF0A20FDF72DFD64230D2208A994
:103B10003348FFF717F87D231B010C2217A9304803
:103B2000FEF76EFF0A20FDF71DFD64230C2205A998
:103B30002B48FFF707F87D231B010C2217A9284803
:103B4000FEF75EFF0A20FDF70DFD64231122694692
:103B50002348FEF7F7FF7D231B01102233A92048DD
:103B6000FEF74EFF0A20FDF7FDFC30A8407D00283F
:103B700004D130A8007B002800D0012420463AB0B0
:103B800010BD0000EF01FFFFFFFF01000713000061
:103B90000000001BEF01FFFFFFFF01000301000514
:103BA000EF01FFFFFFFF0100040201000800000019
:103BB000EF01FFFFFFFF0100040202000900000007
:103BC000EF01FFFFFFFF010003050009EF01FFFF09
:103BD000FFFF0100081B01000000640089000000D5
:103BE0009800002070B501251C002D050C4310D451
:103BF000EC4206D4AC420AD48B4200D070BD824263
:103C000070BDEB4217D4E94215D48B4270BD9B4284
:103C100070BDEC4206D5AC42F9D5994200D070BDDA
:103C2000904270BD6D005C00EC4204D24C00EC424E
:103C300001D2994270BD0FB4034C0CBC03BC30B42C
:103C4000FCF7EEFF30BC70BD190016040000000048
:103C5000000000000102030406070809000000003C
:103C60000102030480807F7E7D7C7B7A7978777681
:103C700076757473727171706F6E6E6D6C6C6B6A49
:103C80006A696868676666656464636362616160E7
:103C9000605F5F5E5E5D5D5C5C5B5B5A5A59595864
:103CA00058575756565555555454535352525251CE
:103CB000515050504F4F4F4E4E4D4D4D4C4C4C4B24
:103CC0004B4B4A4A4A49494948484847474747466B
:103CD00046464545454444444443434343424242A7
:103CE00042414141043D0008000000201000000056
:103CF000F4000008143D00081000002070070000C8
:103D00001001000800000000040000000100000095
:043D100000127A0023
:04000005080000B13E
:00000001FF
